{
  "address": "0xF5aEdB99d72d84a70BE7a875Ad8232406FDBB91D",
  "abi": [
    {
      "inputs": [
        {
          "components": [
            {
              "internalType": "uint256",
              "name": "planetRadius",
              "type": "uint256"
            },
            {
              "internalType": "uint256",
              "name": "ringsOffset",
              "type": "uint256"
            },
            {
              "internalType": "uint256",
              "name": "orbitRadius",
              "type": "uint256"
            },
            {
              "internalType": "uint256[3]",
              "name": "color",
              "type": "uint256[3]"
            },
            {
              "internalType": "uint256",
              "name": "initialAngleDegrees",
              "type": "uint256"
            },
            {
              "internalType": "uint256",
              "name": "duration",
              "type": "uint256"
            }
          ],
          "internalType": "struct Renderer.Planet",
          "name": "planet",
          "type": "tuple"
        }
      ],
      "name": "getOrbitSVG",
      "outputs": [
        {
          "internalType": "string",
          "name": "",
          "type": "string"
        }
      ],
      "stateMutability": "pure",
      "type": "function"
    },
    {
      "inputs": [
        {
          "internalType": "uint256",
          "name": "_tokenId",
          "type": "uint256"
        }
      ],
      "name": "getSVG",
      "outputs": [
        {
          "internalType": "string",
          "name": "",
          "type": "string"
        }
      ],
      "stateMutability": "pure",
      "type": "function"
    },
    {
      "inputs": [
        {
          "internalType": "uint256",
          "name": "_tokenId",
          "type": "uint256"
        }
      ],
      "name": "hasRareStarForTokenId",
      "outputs": [
        {
          "internalType": "bool",
          "name": "",
          "type": "bool"
        }
      ],
      "stateMutability": "pure",
      "type": "function"
    },
    {
      "inputs": [
        {
          "internalType": "uint256",
          "name": "_tokenId",
          "type": "uint256"
        }
      ],
      "name": "numPlanetsForTokenId",
      "outputs": [
        {
          "internalType": "uint256",
          "name": "",
          "type": "uint256"
        }
      ],
      "stateMutability": "pure",
      "type": "function"
    },
    {
      "inputs": [
        {
          "internalType": "uint256",
          "name": "_tokenId",
          "type": "uint256"
        }
      ],
      "name": "numRingedPlanetsForTokenId",
      "outputs": [
        {
          "internalType": "uint256",
          "name": "",
          "type": "uint256"
        }
      ],
      "stateMutability": "pure",
      "type": "function"
    },
    {
      "inputs": [
        {
          "internalType": "uint256",
          "name": "_tokenId",
          "type": "uint256"
        }
      ],
      "name": "render",
      "outputs": [
        {
          "internalType": "string",
          "name": "",
          "type": "string"
        }
      ],
      "stateMutability": "pure",
      "type": "function"
    }
  ],
  "transactionHash": "0xe6479a1b743dc7fd5f8651217450138be79e09bf5901362d5d2f23aa4a1e1393",
  "args": [],
  "numDeployments": 6,
  "solcInputHash": "6b4c9e015bb60332cc14c506d8d060c9",
  "bytecode": "0x608060405234801561001057600080fd5b506128f2806100206000396000f3fe608060405234801561001057600080fd5b50600436106100625760003560e01c8063398820ff146100675780634716826c146100975780637f4e6148146100c7578063be985ac9146100f7578063c321118c14610127578063dd01884f14610157575b600080fd5b610081600480360381019061007c9190611077565b610187565b60405161008e91906110b3565b60405180910390f35b6100b160048036038101906100ac9190611077565b610205565b6040516100be91906110e9565b60405180910390f35b6100e160048036038101906100dc91906112f1565b610254565b6040516100ee919061139e565b60405180910390f35b610111600480360381019061010c9190611077565b6105c4565b60405161011e919061139e565b60405180910390f35b610141600480360381019061013c9190611077565b610a7a565b60405161014e919061139e565b60405180910390f35b610171600480360381019061016c9190611077565b610a8c565b60405161017e91906110b3565b60405180910390f35b60008060005b61019684610a8c565b8110156101fb5760056101d4856101ac84610ad8565b6040516020016101bc9190611422565b6040516020818303038152906040526000600a610c60565b036101e85781806101e490611477565b9250505b80806101f390611477565b91505061018d565b5080915050919050565b6000600561024c836040518060400160405280600881526020017f72617265537461720000000000000000000000000000000000000000000000008152506000600a610c60565b149050919050565b6060600060026101f461026791906114ee565b9050600083604001519050600080806102916001856102869190611529565b848960800151610cc4565b915091506000806102a786868b60800151610cc4565b9150915060006102d28a606001516000600381106102c8576102c761156c565b5b6020020151610ad8565b6102f78b606001516001600381106102ed576102ec61156c565b5b6020020151610ad8565b61031c8c606001516002600381106103125761031161156c565b5b6020020151610ad8565b60405160200161032e939291906115c1565b6040516020818303038152906040529050600061034a89610ad8565b6103538a610ad8565b6103608d60400151610ad8565b84610388670de0b6b3a76400008b6103789190611610565b8e610383919061167a565b610ad8565b60405160200161039c9594939291906117a2565b6040516020818303038152906040529050806103d5670de0b6b3a7640000876103c59190611610565b8b6103d09190611529565b610ad8565b6103ee60028e600001516103e99190611856565b610ad8565b84610416670de0b6b3a7640000896104069190611610565b8e610411919061167a565b610ad8565b60405160200161042a9594939291906118d6565b604051602081830303815290604052905080610463670de0b6b3a7640000856104539190611610565b8b61045e9190611529565b610ad8565b6104708d60000151610ad8565b8460405160200161048494939291906119a9565b604051602081830303815290604052905060008b60200151146105395760008b602001518c600001516104b79190611a14565b9050816104e1670de0b6b3a7640000876104d19190611610565b8c6104dc919061167a565b610ad8565b610508670de0b6b3a7640000876104f89190611610565b8d6105039190611529565b610ad8565b61051184610ad8565b86604051602001610526959493929190611aba565b6040516020818303038152906040529150505b806105438a610ad8565b61054c8b610ad8565b6105558c610ad8565b61055e8d610ad8565b604051602001610572959493929190611c56565b6040516020818303038152906040529050806105918c60a00151610ad8565b6040516020016105a2929190611d80565b6040516020818303038152906040529050809950505050505050505050919050565b606060006105d183610a8c565b905060006003826105e29190611a14565b60026101f46105f191906114ee565b6105fb91906114ee565b9050600061062360028361060f91906114ee565b60046101f461061e91906114ee565b610dc5565b9050600060048361063491906114ee565b90506000610691876040518060400160405280600a81526020017f737461725261646975730000000000000000000000000000000000000000000081525086600a6002896106829190611dbe565b61068c9190611856565b610c60565b9050600061069e88610205565b6106dd576040518060400160405280600e81526020017f66696c6c3d222346464441313722000000000000000000000000000000000000815250610714565b6040518060400160405280600e81526020017f66696c6c3d2223333942314646220000000000000000000000000000000000008152505b905060006107236101f4610ad8565b61072e6101f4610ad8565b6107396101f4610ad8565b6107446101f4610ad8565b61074f6101f4610ad8565b61075a6101f4610ad8565b61077160026101f461076c91906114ee565b610ad8565b61078860026101f461078391906114ee565b610ad8565b6107918b610ad8565b8a6040516020016107ab9a99989796959493929190611f94565b604051602081830303815290604052905060005b87811015610a48576107cf610fd4565b60056108068c6107de85610ad8565b6040516020016107ee9190611422565b6040516020818303038152906040526000600a610c60565b036108175760048160200181815250505b6108598b61082484610ad8565b6040516020016108349190612105565b6040516020818303038152906040528884602001518b6108549190611856565b610c60565b81600001818152505060038261086f9190611a14565b8861087a9190611dbe565b8160400181815250506108b88b61089084610ad8565b6040516020016108a09190612151565b6040516020818303038152906040526005600f610c60565b8160a00181815250506108f68b6108ce84610ad8565b6040516020016108de919061219d565b604051602081830303815290604052606460ff610c60565b816060015160006003811061090e5761090d61156c565b5b60200201818152505061094c8b61092484610ad8565b60405160200161093491906121e9565b604051602081830303815290604052606460ff610c60565b81606001516001600381106109645761096361156c565b5b6020020181815250506109a28b61097a84610ad8565b60405160200161098a9190612235565b604051602081830303815290604052606460ff610c60565b81606001516002600381106109ba576109b961156c565b5b6020020181815250506109f98b6109d084610ad8565b6040516020016109e09190612281565b6040516020818303038152906040526000610168610c60565b8160800181815250506000610a0d82610254565b90508381604051602001610a229291906122a7565b604051602081830303815290604052935050508080610a4090611477565b9150506107bf565b5080604051602001610a5a91906122f1565b604051602081830303815290604052905080975050505050505050919050565b6060610a85826105c4565b9050919050565b6000610ad1826040518060400160405280600a81526020017f6e756d506c616e6574730000000000000000000000000000000000000000000081525060016006610c60565b9050919050565b606060008203610b1f576040518060400160405280600181526020017f30000000000000000000000000000000000000000000000000000000000000008152509050610c5b565b600082905060005b60008214610b51578080610b3a90611477565b915050600a82610b4a91906114ee565b9150610b27565b60008167ffffffffffffffff811115610b6d57610b6c61111a565b5b6040519080825280601f01601f191660200182016040528015610b9f5781602001600182028036833780820191505090505b50905060008290505b60008614610c5357600181610bbd9190611856565b90506000600a8088610bcf91906114ee565b610bd99190611dbe565b87610be49190611856565b6030610bf09190612324565b905060008160f81b905080848481518110610c0e57610c0d61156c565b5b60200101907effffffffffffffffffffffffffffffffffffffffffffffffffffffffffffff1916908160001a905350600a88610c4a91906114ee565b97505050610ba8565b819450505050505b919050565b600080610c9585610c7088610ad8565b604051602001610c819291906122a7565b604051602081830303815290604052610dde565b9050838484610ca49190611856565b82610caf9190612359565b610cb99190611a14565b915050949350505050565b60008060008590506000859050610cf960b4672b992ddfa23249d6610ce991906114ee565b86610cf49190611dbe565b610e11565b86610d04919061238a565b610d2c60b4672b992ddfa23249d6610d1c91906114ee565b87610d279190611dbe565b610fa7565b88610d37919061238a565b610d419190611529565b9150610d6b60b4672b992ddfa23249d6610d5b91906114ee565b86610d669190611dbe565b610fa7565b86610d76919061238a565b610d9e60b4672b992ddfa23249d6610d8e91906114ee565b87610d999190611dbe565b610e11565b88610da9919061238a565b610db3919061167a565b90508181935093505050935093915050565b6000818310610dd45781610dd6565b825b905092915050565b600081604051602001610df191906124a1565b6040516020818303038152906040528051906020012060001c9050919050565b6000672b992ddfa23249d6600202672b992ddfa23249d66002028381610e3a57610e396114bf565b5b06634000000063ffffffff160281610e5557610e546114bf565b5b0491506000600160106001901b0360106008601c030384901c1690506000600160086001901b036008601c0385901c169050600080631000000063ffffffff168616149050600080632000000063ffffffff1687161415905081610ebe57826001610100030392505b600060405180610440016040528061040481526020016124b9610404913990506000600460ff1660028601029050600081830151905060006001600460080260ff166001901b03600460080260ff1683901c16905060006001600460080260ff166001901b0383169050600060108a84840302901c9050600088610f4457818303610f48565b8184015b90508715610f76577fffffffffffffffffffffffffffffffffffffffffffffffffffffffffffffffff810290505b637fffffff670de0b6b3a7640000820281610f9457610f936114bf565b5b059b505050505050505050505050919050565b6000610fcd6002672b992ddfa23249d681610fc557610fc46114bf565b5b048301610e11565b9050919050565b6040518060c00160405280600081526020016000815260200160008152602001610ffc611010565b815260200160008152602001600081525090565b6040518060600160405280600390602082028036833780820191505090505090565b6000604051905090565b600080fd5b6000819050919050565b61105481611041565b811461105f57600080fd5b50565b6000813590506110718161104b565b92915050565b60006020828403121561108d5761108c61103c565b5b600061109b84828501611062565b91505092915050565b6110ad81611041565b82525050565b60006020820190506110c860008301846110a4565b92915050565b60008115159050919050565b6110e3816110ce565b82525050565b60006020820190506110fe60008301846110da565b92915050565b600080fd5b6000601f19601f8301169050919050565b7f4e487b7100000000000000000000000000000000000000000000000000000000600052604160045260246000fd5b61115282611109565b810181811067ffffffffffffffff821117156111715761117061111a565b5b80604052505050565b6000611184611032565b90506111908282611149565b919050565b600080fd5b600067ffffffffffffffff8211156111b5576111b461111a565b5b602082029050919050565b600080fd5b60006111d86111d38461119a565b61117a565b905080602084028301858111156111f2576111f16111c0565b5b835b8181101561121b57806112078882611062565b8452602084019350506020810190506111f4565b5050509392505050565b600082601f83011261123a57611239611195565b5b60036112478482856111c5565b91505092915050565b6000610100828403121561126757611266611104565b5b61127160c061117a565b9050600061128184828501611062565b600083015250602061129584828501611062565b60208301525060406112a984828501611062565b60408301525060606112bd84828501611225565b60608301525060c06112d184828501611062565b60808301525060e06112e584828501611062565b60a08301525092915050565b600061010082840312156113085761130761103c565b5b600061131684828501611250565b91505092915050565b600081519050919050565b600082825260208201905092915050565b60005b8381101561135957808201518184015260208101905061133e565b60008484015250505050565b60006113708261131f565b61137a818561132a565b935061138a81856020860161133b565b61139381611109565b840191505092915050565b600060208201905081810360008301526113b88184611365565b905092915050565b7f72696e67734f6666736574000000000000000000000000000000000000000000815250565b600081905092915050565b60006113fc8261131f565b61140681856113e6565b935061141681856020860161133b565b80840191505092915050565b600061142d826113c0565b600b8201915061143d82846113f1565b915081905092915050565b7f4e487b7100000000000000000000000000000000000000000000000000000000600052601160045260246000fd5b600061148282611041565b91507fffffffffffffffffffffffffffffffffffffffffffffffffffffffffffffffff82036114b4576114b3611448565b5b600182019050919050565b7f4e487b7100000000000000000000000000000000000000000000000000000000600052601260045260246000fd5b60006114f982611041565b915061150483611041565b925082611514576115136114bf565b5b828204905092915050565b6000819050919050565b60006115348261151f565b915061153f8361151f565b925082820390508181126000841216828213600085121516171561156657611565611448565b5b92915050565b7f4e487b7100000000000000000000000000000000000000000000000000000000600052603260045260246000fd5b7f2c00000000000000000000000000000000000000000000000000000000000000815250565b60006115cd82866113f1565b91506115d88261159b565b6001820191506115e882856113f1565b91506115f38261159b565b60018201915061160382846113f1565b9150819050949350505050565b600061161b8261151f565b91506116268361151f565b925082611636576116356114bf565b5b600160000383147f80000000000000000000000000000000000000000000000000000000000000008314161561166f5761166e611448565b5b828205905092915050565b60006116858261151f565b91506116908361151f565b9250828201905082811215600083121683821260008412151617156116b8576116b7611448565b5b92915050565b7f3c636972636c652063783d220000000000000000000000000000000000000000815250565b7f222063793d220000000000000000000000000000000000000000000000000000815250565b7f2220723d22000000000000000000000000000000000000000000000000000000815250565b7f222066696c6c3d226e6f6e6522207374726f6b653d2272676261280000000000815250565b7f2c302e3529222f3e000000000000000000000000000000000000000000000000815250565b7f3c673e3c636972636c652063783d220000000000000000000000000000000000815250565b60006117ad826116be565b600c820191506117bd82886113f1565b91506117c8826116e4565b6006820191506117d882876113f1565b91506117e38261170a565b6005820191506117f382866113f1565b91506117fe82611730565b601b8201915061180e82856113f1565b915061181982611756565b6008820191506118288261177c565b600f8201915061183882846113f1565b9150611843826116e4565b6006820191508190509695505050505050565b600061186182611041565b915061186c83611041565b925082820390508181111561188457611883611448565b5b92915050565b7f222066696c6c3d22726762280000000000000000000000000000000000000000815250565b7f29222f3e3c636972636c652063783d2200000000000000000000000000000000815250565b60006118e282886113f1565b91506118ee82876113f1565b91506118f98261170a565b60058201915061190982866113f1565b91506119148261188a565b600c8201915061192482856113f1565b915061192f826118b0565b60108201915061193f82846113f1565b915061194a826116e4565b6006820191508190509695505050505050565b7f222066696c6c2d6f7061636974793d22302e38222066696c6c3d227267622800815250565b7f29222f3e00000000000000000000000000000000000000000000000000000000815250565b60006119b582876113f1565b91506119c182866113f1565b91506119cc8261170a565b6005820191506119dc82856113f1565b91506119e78261195d565b601f820191506119f782846113f1565b9150611a0282611983565b60048201915081905095945050505050565b6000611a1f82611041565b9150611a2a83611041565b9250828201905080821115611a4257611a41611448565b5b92915050565b7f222066696c6c3d226e6f6e6522207374726f6b652d77696474683d223122207360008201527f74726f6b653d2272676228000000000000000000000000000000000000000000602082015250565b6000611aa4602b836113e6565b9150611aaf82611a48565b602b82019050919050565b6000611ac682886113f1565b9150611ad1826116be565b600c82019150611ae182876113f1565b9150611aec826116e4565b600682019150611afc82866113f1565b9150611b078261170a565b600582019150611b1782856113f1565b9150611b2282611a97565b9150611b2e82846113f1565b9150611b3982611983565b6004820191508190509695505050505050565b7f3c616e696d6174655472616e73666f726d206174747269627574654e616d653d60008201527f227472616e73666f726d2220747970653d22726f74617465222066726f6d3d2260208201527f3020000000000000000000000000000000000000000000000000000000000000604082015250565b6000611bce6042836113e6565b9150611bd982611b4c565b604282019050919050565b7f2000000000000000000000000000000000000000000000000000000000000000815250565b7f2220746f3d223336302000000000000000000000000000000000000000000000815250565b7f22206475723d2200000000000000000000000000000000000000000000000000815250565b6000611c6282886113f1565b9150611c6d82611bc1565b9150611c7982876113f1565b9150611c8482611be4565b600182019150611c9482866113f1565b9150611c9f82611c0a565b600a82019150611caf82856113f1565b9150611cba82611be4565b600182019150611cca82846113f1565b9150611cd582611c30565b6007820191508190509695505050505050565b7f732220726570656174436f756e743d22696e646566696e697465223e3c2f616e60008201527f696d6174655472616e73666f726d3e0000000000000000000000000000000000602082015250565b6000611d44602f836113e6565b9150611d4f82611ce8565b602f82019050919050565b7f3c2f673e00000000000000000000000000000000000000000000000000000000815250565b6000611d8c82856113f1565b9150611d9882846113f1565b9150611da382611d37565b9150611dae82611d5a565b6004820191508190509392505050565b6000611dc982611041565b9150611dd483611041565b9250817fffffffffffffffffffffffffffffffffffffffffffffffffffffffffffffffff0483118215151615611e0d57611e0c611448565b5b828202905092915050565b7f3c7376672077696474683d220000000000000000000000000000000000000000815250565b7f22206865696768743d2200000000000000000000000000000000000000000000815250565b7f222076696577426f783d22302030200000000000000000000000000000000000815250565b7f2220786d6c6e733d22687474703a2f2f7777772e77332e6f72672f323030302f60008201527f737667223e000000000000000000000000000000000000000000000000000000602082015250565b6000611ee66025836113e6565b9150611ef182611e8a565b602582019050919050565b7f3c726563742077696474683d2200000000000000000000000000000000000000815250565b7f222066696c6c3d2223304431463246223e3c2f726563743e0000000000000000815250565b7f2220000000000000000000000000000000000000000000000000000000000000815250565b7f2f3e000000000000000000000000000000000000000000000000000000000000815250565b6000611f9f82611e18565b600c82019150611faf828d6113f1565b9150611fba82611e3e565b600a82019150611fca828c6113f1565b9150611fd582611e64565b600f82019150611fe5828b6113f1565b9150611ff082611be4565b600182019150612000828a6113f1565b915061200b82611ed9565b915061201682611efc565b600d8201915061202682896113f1565b915061203182611e3e565b600a8201915061204182886113f1565b915061204c82611f22565b60188201915061205b826116be565b600c8201915061206b82876113f1565b9150612076826116e4565b60068201915061208682866113f1565b91506120918261170a565b6005820191506120a182856113f1565b91506120ac82611f48565b6002820191506120bc82846113f1565b91506120c782611f6e565b6002820191508190509b9a5050505050505050505050565b7f706c616e65745261646975730000000000000000000000000000000000000000815250565b6000612110826120df565b600c8201915061212082846113f1565b915081905092915050565b7f6475726174696f6e000000000000000000000000000000000000000000000000815250565b600061215c8261212b565b60088201915061216c82846113f1565b915081905092915050565b7f636f6c6f72520000000000000000000000000000000000000000000000000000815250565b60006121a882612177565b6006820191506121b882846113f1565b915081905092915050565b7f636f6c6f72470000000000000000000000000000000000000000000000000000815250565b60006121f4826121c3565b60068201915061220482846113f1565b915081905092915050565b7f636f6c6f72420000000000000000000000000000000000000000000000000000815250565b60006122408261220f565b60068201915061225082846113f1565b915081905092915050565b7f696e697469616c416e676c650000000000000000000000000000000000000000815250565b600061228c8261225b565b600c8201915061229c82846113f1565b915081905092915050565b60006122b382856113f1565b91506122bf82846113f1565b91508190509392505050565b7f3c2f7376673e0000000000000000000000000000000000000000000000000000815250565b60006122fd82846113f1565b9150612308826122cb565b60068201915081905092915050565b600060ff82169050919050565b600061232f82612317565b915061233a83612317565b9250828201905060ff81111561235357612352611448565b5b92915050565b600061236482611041565b915061236f83611041565b92508261237f5761237e6114bf565b5b828206905092915050565b60006123958261151f565b91506123a08361151f565b9250827f7fffffffffffffffffffffffffffffffffffffffffffffffffffffffffffffff04821160008413600084131616156123df576123de611448565b5b817f8000000000000000000000000000000000000000000000000000000000000000058312600084126000841316161561241c5761241b611448565b5b827f8000000000000000000000000000000000000000000000000000000000000000058212600084136000841216161561245957612458611448565b5b827f7fffffffffffffffffffffffffffffffffffffffffffffffffffffffffffffff058212600084126000841216161561249657612495611448565b5b828202905092915050565b60006124ad82846113f1565b91508190509291505056fe0000000000c90f8801921d20025b26d703242abf03ed26e604b6195d057f00350647d97c0710a34507d95b9e08a2009a096a90490a3308bc0afb68050bc3ac350c8bd35e0d53db920e1bc2e40ee387660fab272b1072a0481139f0cf120116d512c8106e138edbb1145576b1151bdf8515e2144416a81305176dd9de183366e818f8b83c19bdcbf31a82a0251b4732ef1c0b826a1ccf8cb31d934fe51e56ca1e1f19f97b1fdcdc1b209f701c2161b39f2223a4c522e541af23a6887e2467775725280c5d25e845b626a8218527679df42826b92828e5714a29a3c4852a61b1012b1f34eb2bdc4e6f2c98fbba2d553afb2e110a622ecc681e2f8752623041c76030fbc54d31b54a5d326e54c73326e2c233def2873496824f354d905636041ad936ba2013376f9e46382493b038d8fe93398cdd323a402dd13af2eeb73ba51e293c56ba703d07c1d53db832a53e680b2c3f1749b73fc5ec974073f21d4121589a41ce1e64427a41d04325c13543d09aec447acd50452456bc45cd358f46756827471cece647c3c22e4869e664490f57ee49b415334a581c9d4afb6c974b9e038f4c3fdff34ce100344d8162c34e2106174ebfe8a44f5e08e24ffb654c5097fc5e5133cc9451ced46e5269126e53028517539b2aef5433027d54ca0a4a556040e255f5a4d2568a34a9571deef957b0d2555842dd5458d40e8c5964649759f3de125a8279995b1035ce5b9d11535c290acc5cb420df5d3e52365dc79d7b5e50015d5ed77c895f5e0db25fe3b38d60686cce60ec382f616f146b61f1003e6271fa6862f201ac637114cc63ef328f646c59bf64e889256563bf9165ddfbd266573cbb66cf811f6746c7d767bd0fbc683257aa68a69e806919e31f698c246b69fd614a6a6d98a36adcc9646b4af2786bb812d06c24295f6c8f351b6cf934fb6d6227f96dca0d146e30e3496e96a99c6efb5f116f5f02b16fc1938470231099708378fe70e2cbc571410804719e2cd171fa394872552c8472af05a67307c3cf735f662573b5ebd0740b53fa745f9dd074b2c8837504d3447555bd4b75a585ce75f42c0a7641af3c768e0ea576d9498877235f2c776c4eda77b417df77fab988784033287884841378c7aba17909a92c794a7c11798a23b079c89f6d7a05eeac7a4210d87a7d055a7ab6cba37aef63237b26cb4e7b5d039d7b920b887bc5e28f7bf8882f7c29fbed7c5a3d4f7c894bdd7cb727237ce3ceb17d0f42177d3980eb7d628ac57d8a5f3f7db0fdf77dd6668e7dfa98a77e1d93e97e3f57fe7e5fe4927e7f39567e9d55fb7eba3a387ed5e5c57ef0585f7f0991c37f2191b37f3857f57f4de4507f62368e7f754e7f7f872bf27f97cebc7fa736b37fb563b27fc255957fce0c3d7fd8878d7fe1c76a7fe9cbbf7ff094777ff621817ffa72d07ffd88597fff62157fffffffa2646970667358221220dd51d417670865ea944d1a9727195eeebeb18df1a87f51868efd60a138d9ad2164736f6c63430008100033",
  "libraries": {
    "Utilities": "0x744B8BD1aB1aE8ED8f798eA0cdf9da84625197Ff",
    "Trigonometry": "0x24730cE0481D5E949932456881a72Df23FD5F7b7"
  },
  "devdoc": {
    "kind": "dev",
    "methods": {
      "getOrbitSVG((uint256,uint256,uint256,uint256[3],uint256,uint256))": {
        "params": {
          "planet": "The planet to generate the SVG for."
        }
      },
      "getSVG(uint256)": {
        "params": {
          "_tokenId": "The token ID of the solar system to generate the SVG for."
        }
      },
      "hasRareStarForTokenId(uint256)": {
        "params": {
          "_tokenId": "The token ID of the solar system to check."
        }
      },
      "numPlanetsForTokenId(uint256)": {
        "params": {
          "_tokenId": "The token ID of the solar system to get the number of planets for."
        }
      },
      "numRingedPlanetsForTokenId(uint256)": {
        "params": {
          "_tokenId": "The token ID of the solar system to get the number of ringed planets for."
        }
      }
    },
    "version": 1
  },
  "userdoc": {
    "kind": "user",
    "methods": {
      "getOrbitSVG((uint256,uint256,uint256,uint256[3],uint256,uint256))": {
        "notice": "Gets the SVG representation of a planet's orbit."
      },
      "getSVG(uint256)": {
        "notice": "Gets the SVG representation of a solar system."
      },
      "hasRareStarForTokenId(uint256)": {
        "notice": "Determines if a solar system has a rare star."
      },
      "numPlanetsForTokenId(uint256)": {
        "notice": "Gets the number of planets in a solar system."
      },
      "numRingedPlanetsForTokenId(uint256)": {
        "notice": "Gets the number of ringed planets in a solar system."
      }
    },
    "version": 1
  },
  "storageLayout": {
    "storage": [],
    "types": null
  }
}