{
  "address": "0x07e12F3F0bFCeEE2B92B68eD485E85B896761C75",
  "abi": [
    {
      "inputs": [
        {
          "internalType": "string",
          "name": "_name",
          "type": "string"
        },
        {
          "internalType": "string",
          "name": "_symbol",
          "type": "string"
        },
        {
          "internalType": "uint256",
          "name": "_price",
          "type": "uint256"
        },
        {
          "internalType": "uint256",
          "name": "_maxSupply",
          "type": "uint256"
        },
        {
          "internalType": "address",
          "name": "_renderer",
          "type": "address"
        }
      ],
      "stateMutability": "nonpayable",
      "type": "constructor"
    },
    {
      "inputs": [],
      "name": "ApprovalCallerNotOwnerNorApproved",
      "type": "error"
    },
    {
      "inputs": [],
      "name": "ApprovalQueryForNonexistentToken",
      "type": "error"
    },
    {
      "inputs": [],
      "name": "BalanceQueryForZeroAddress",
      "type": "error"
    },
    {
      "inputs": [],
      "name": "MintERC2309QuantityExceedsLimit",
      "type": "error"
    },
    {
      "inputs": [],
      "name": "MintToZeroAddress",
      "type": "error"
    },
    {
      "inputs": [],
      "name": "MintZeroQuantity",
      "type": "error"
    },
    {
      "inputs": [],
      "name": "OwnerQueryForNonexistentToken",
      "type": "error"
    },
    {
      "inputs": [],
      "name": "OwnershipNotInitializedForExtraData",
      "type": "error"
    },
    {
      "inputs": [],
      "name": "TransferCallerNotOwnerNorApproved",
      "type": "error"
    },
    {
      "inputs": [],
      "name": "TransferFromIncorrectOwner",
      "type": "error"
    },
    {
      "inputs": [],
      "name": "TransferToNonERC721ReceiverImplementer",
      "type": "error"
    },
    {
      "inputs": [],
      "name": "TransferToZeroAddress",
      "type": "error"
    },
    {
      "inputs": [],
      "name": "URIQueryForNonexistentToken",
      "type": "error"
    },
    {
      "anonymous": false,
      "inputs": [
        {
          "indexed": true,
          "internalType": "address",
          "name": "owner",
          "type": "address"
        },
        {
          "indexed": true,
          "internalType": "address",
          "name": "approved",
          "type": "address"
        },
        {
          "indexed": true,
          "internalType": "uint256",
          "name": "tokenId",
          "type": "uint256"
        }
      ],
      "name": "Approval",
      "type": "event"
    },
    {
      "anonymous": false,
      "inputs": [
        {
          "indexed": true,
          "internalType": "address",
          "name": "owner",
          "type": "address"
        },
        {
          "indexed": true,
          "internalType": "address",
          "name": "operator",
          "type": "address"
        },
        {
          "indexed": false,
          "internalType": "bool",
          "name": "approved",
          "type": "bool"
        }
      ],
      "name": "ApprovalForAll",
      "type": "event"
    },
    {
      "anonymous": false,
      "inputs": [
        {
          "indexed": true,
          "internalType": "uint256",
          "name": "fromTokenId",
          "type": "uint256"
        },
        {
          "indexed": false,
          "internalType": "uint256",
          "name": "toTokenId",
          "type": "uint256"
        },
        {
          "indexed": true,
          "internalType": "address",
          "name": "from",
          "type": "address"
        },
        {
          "indexed": true,
          "internalType": "address",
          "name": "to",
          "type": "address"
        }
      ],
      "name": "ConsecutiveTransfer",
      "type": "event"
    },
    {
      "anonymous": false,
      "inputs": [
        {
          "indexed": true,
          "internalType": "address",
          "name": "previousOwner",
          "type": "address"
        },
        {
          "indexed": true,
          "internalType": "address",
          "name": "newOwner",
          "type": "address"
        }
      ],
      "name": "OwnershipTransferred",
      "type": "event"
    },
    {
      "anonymous": false,
      "inputs": [
        {
          "indexed": true,
          "internalType": "address",
          "name": "from",
          "type": "address"
        },
        {
          "indexed": true,
          "internalType": "address",
          "name": "to",
          "type": "address"
        },
        {
          "indexed": true,
          "internalType": "uint256",
          "name": "tokenId",
          "type": "uint256"
        }
      ],
      "name": "Transfer",
      "type": "event"
    },
    {
      "inputs": [
        {
          "internalType": "address[]",
          "name": "_recipients",
          "type": "address[]"
        },
        {
          "internalType": "uint256",
          "name": "_quantity",
          "type": "uint256"
        }
      ],
      "name": "airdrop",
      "outputs": [],
      "stateMutability": "payable",
      "type": "function"
    },
    {
      "inputs": [
        {
          "internalType": "address",
          "name": "to",
          "type": "address"
        },
        {
          "internalType": "uint256",
          "name": "tokenId",
          "type": "uint256"
        }
      ],
      "name": "approve",
      "outputs": [],
      "stateMutability": "payable",
      "type": "function"
    },
    {
      "inputs": [
        {
          "internalType": "address",
          "name": "owner",
          "type": "address"
        }
      ],
      "name": "balanceOf",
      "outputs": [
        {
          "internalType": "uint256",
          "name": "",
          "type": "uint256"
        }
      ],
      "stateMutability": "view",
      "type": "function"
    },
    {
      "inputs": [
        {
          "internalType": "uint256",
          "name": "tokenId",
          "type": "uint256"
        }
      ],
      "name": "getApproved",
      "outputs": [
        {
          "internalType": "address",
          "name": "",
          "type": "address"
        }
      ],
      "stateMutability": "view",
      "type": "function"
    },
    {
      "inputs": [
        {
          "internalType": "address",
          "name": "owner",
          "type": "address"
        },
        {
          "internalType": "address",
          "name": "operator",
          "type": "address"
        }
      ],
      "name": "isApprovedForAll",
      "outputs": [
        {
          "internalType": "bool",
          "name": "",
          "type": "bool"
        }
      ],
      "stateMutability": "view",
      "type": "function"
    },
    {
      "inputs": [],
      "name": "maxSupply",
      "outputs": [
        {
          "internalType": "uint256",
          "name": "",
          "type": "uint256"
        }
      ],
      "stateMutability": "view",
      "type": "function"
    },
    {
      "inputs": [
        {
          "internalType": "uint256",
          "name": "_quantity",
          "type": "uint256"
        }
      ],
      "name": "mint",
      "outputs": [],
      "stateMutability": "payable",
      "type": "function"
    },
    {
      "inputs": [],
      "name": "name",
      "outputs": [
        {
          "internalType": "string",
          "name": "",
          "type": "string"
        }
      ],
      "stateMutability": "view",
      "type": "function"
    },
    {
      "inputs": [],
      "name": "owner",
      "outputs": [
        {
          "internalType": "address",
          "name": "",
          "type": "address"
        }
      ],
      "stateMutability": "view",
      "type": "function"
    },
    {
      "inputs": [
        {
          "internalType": "uint256",
          "name": "tokenId",
          "type": "uint256"
        }
      ],
      "name": "ownerOf",
      "outputs": [
        {
          "internalType": "address",
          "name": "",
          "type": "address"
        }
      ],
      "stateMutability": "view",
      "type": "function"
    },
    {
      "inputs": [],
      "name": "price",
      "outputs": [
        {
          "internalType": "uint256",
          "name": "",
          "type": "uint256"
        }
      ],
      "stateMutability": "view",
      "type": "function"
    },
    {
      "inputs": [],
      "name": "renderer",
      "outputs": [
        {
          "internalType": "contract Renderer",
          "name": "",
          "type": "address"
        }
      ],
      "stateMutability": "view",
      "type": "function"
    },
    {
      "inputs": [],
      "name": "renounceOwnership",
      "outputs": [],
      "stateMutability": "nonpayable",
      "type": "function"
    },
    {
      "inputs": [
        {
          "internalType": "address",
          "name": "from",
          "type": "address"
        },
        {
          "internalType": "address",
          "name": "to",
          "type": "address"
        },
        {
          "internalType": "uint256",
          "name": "tokenId",
          "type": "uint256"
        }
      ],
      "name": "safeTransferFrom",
      "outputs": [],
      "stateMutability": "payable",
      "type": "function"
    },
    {
      "inputs": [
        {
          "internalType": "address",
          "name": "from",
          "type": "address"
        },
        {
          "internalType": "address",
          "name": "to",
          "type": "address"
        },
        {
          "internalType": "uint256",
          "name": "tokenId",
          "type": "uint256"
        },
        {
          "internalType": "bytes",
          "name": "_data",
          "type": "bytes"
        }
      ],
      "name": "safeTransferFrom",
      "outputs": [],
      "stateMutability": "payable",
      "type": "function"
    },
    {
      "inputs": [
        {
          "internalType": "address",
          "name": "operator",
          "type": "address"
        },
        {
          "internalType": "bool",
          "name": "approved",
          "type": "bool"
        }
      ],
      "name": "setApprovalForAll",
      "outputs": [],
      "stateMutability": "nonpayable",
      "type": "function"
    },
    {
      "inputs": [
        {
          "internalType": "bytes4",
          "name": "interfaceId",
          "type": "bytes4"
        }
      ],
      "name": "supportsInterface",
      "outputs": [
        {
          "internalType": "bool",
          "name": "",
          "type": "bool"
        }
      ],
      "stateMutability": "view",
      "type": "function"
    },
    {
      "inputs": [],
      "name": "symbol",
      "outputs": [
        {
          "internalType": "string",
          "name": "",
          "type": "string"
        }
      ],
      "stateMutability": "view",
      "type": "function"
    },
    {
      "inputs": [
        {
          "internalType": "uint256",
          "name": "tokenId",
          "type": "uint256"
        }
      ],
      "name": "tokenURI",
      "outputs": [
        {
          "internalType": "string",
          "name": "",
          "type": "string"
        }
      ],
      "stateMutability": "view",
      "type": "function"
    },
    {
      "inputs": [],
      "name": "totalSupply",
      "outputs": [
        {
          "internalType": "uint256",
          "name": "",
          "type": "uint256"
        }
      ],
      "stateMutability": "view",
      "type": "function"
    },
    {
      "inputs": [
        {
          "internalType": "address",
          "name": "from",
          "type": "address"
        },
        {
          "internalType": "address",
          "name": "to",
          "type": "address"
        },
        {
          "internalType": "uint256",
          "name": "tokenId",
          "type": "uint256"
        }
      ],
      "name": "transferFrom",
      "outputs": [],
      "stateMutability": "payable",
      "type": "function"
    },
    {
      "inputs": [
        {
          "internalType": "address",
          "name": "newOwner",
          "type": "address"
        }
      ],
      "name": "transferOwnership",
      "outputs": [],
      "stateMutability": "nonpayable",
      "type": "function"
    },
    {
      "inputs": [],
      "name": "withdraw",
      "outputs": [],
      "stateMutability": "nonpayable",
      "type": "function"
    }
  ],
  "transactionHash": "0xed03d03b251c96e0a4891ded1dc9ebbeb57f5abc4934d81c5b31fa02c3b5c2f0",
  "args": [
    "Test",
    "TEST",
    "10000000000000000",
    1000,
    "0xF5aEdB99d72d84a70BE7a875Ad8232406FDBB91D"
  ],
  "numDeployments": 8,
  "solcInputHash": "0837987798b33f4960f91e6eb6abe5f1",
  "bytecode": "0x60806040523480156200001157600080fd5b50604051620039d2380380620039d28339818101604052810190620000379190620003f5565b848481600290816200004a9190620006fc565b5080600390816200005c9190620006fc565b506200006d620000ef60201b60201c565b60008190555050506200009562000089620000f460201b60201c565b620000fc60201b60201c565b8260098190555081600a8190555080600b60006101000a81548173ffffffffffffffffffffffffffffffffffffffff021916908373ffffffffffffffffffffffffffffffffffffffff1602179055505050505050620007e3565b600090565b600033905090565b6000600860009054906101000a900473ffffffffffffffffffffffffffffffffffffffff16905081600860006101000a81548173ffffffffffffffffffffffffffffffffffffffff021916908373ffffffffffffffffffffffffffffffffffffffff1602179055508173ffffffffffffffffffffffffffffffffffffffff168173ffffffffffffffffffffffffffffffffffffffff167f8be0079c531659141344cd1fd0a4f28419497f9722a3daafe3b4186f6b6457e060405160405180910390a35050565b6000604051905090565b600080fd5b600080fd5b600080fd5b600080fd5b6000601f19601f8301169050919050565b7f4e487b7100000000000000000000000000000000000000000000000000000000600052604160045260246000fd5b6200022b82620001e0565b810181811067ffffffffffffffff821117156200024d576200024c620001f1565b5b80604052505050565b600062000262620001c2565b905062000270828262000220565b919050565b600067ffffffffffffffff821115620002935762000292620001f1565b5b6200029e82620001e0565b9050602081019050919050565b60005b83811015620002cb578082015181840152602081019050620002ae565b60008484015250505050565b6000620002ee620002e88462000275565b62000256565b9050828152602081018484840111156200030d576200030c620001db565b5b6200031a848285620002ab565b509392505050565b600082601f8301126200033a5762000339620001d6565b5b81516200034c848260208601620002d7565b91505092915050565b6000819050919050565b6200036a8162000355565b81146200037657600080fd5b50565b6000815190506200038a816200035f565b92915050565b600073ffffffffffffffffffffffffffffffffffffffff82169050919050565b6000620003bd8262000390565b9050919050565b620003cf81620003b0565b8114620003db57600080fd5b50565b600081519050620003ef81620003c4565b92915050565b600080600080600060a08688031215620004145762000413620001cc565b5b600086015167ffffffffffffffff811115620004355762000434620001d1565b5b620004438882890162000322565b955050602086015167ffffffffffffffff811115620004675762000466620001d1565b5b620004758882890162000322565b9450506040620004888882890162000379565b93505060606200049b8882890162000379565b9250506080620004ae88828901620003de565b9150509295509295909350565b600081519050919050565b7f4e487b7100000000000000000000000000000000000000000000000000000000600052602260045260246000fd5b600060028204905060018216806200050e57607f821691505b602082108103620005245762000523620004c6565b5b50919050565b60008190508160005260206000209050919050565b60006020601f8301049050919050565b600082821b905092915050565b6000600883026200058e7fffffffffffffffffffffffffffffffffffffffffffffffffffffffffffffffff826200054f565b6200059a86836200054f565b95508019841693508086168417925050509392505050565b6000819050919050565b6000620005dd620005d7620005d18462000355565b620005b2565b62000355565b9050919050565b6000819050919050565b620005f983620005bc565b620006116200060882620005e4565b8484546200055c565b825550505050565b600090565b6200062862000619565b62000635818484620005ee565b505050565b5b818110156200065d57620006516000826200061e565b6001810190506200063b565b5050565b601f821115620006ac5762000676816200052a565b62000681846200053f565b8101602085101562000691578190505b620006a9620006a0856200053f565b8301826200063a565b50505b505050565b600082821c905092915050565b6000620006d160001984600802620006b1565b1980831691505092915050565b6000620006ec8383620006be565b9150826002028217905092915050565b6200070782620004bb565b67ffffffffffffffff811115620007235762000722620001f1565b5b6200072f8254620004f5565b6200073c82828562000661565b600060209050601f8311600181146200077457600084156200075f578287015190505b6200076b8582620006de565b865550620007db565b601f19841662000784866200052a565b60005b82811015620007ae5784890151825560018201915060208501945060208101905062000787565b86831015620007ce5784890151620007ca601f891682620006be565b8355505b6001600288020188555050505b505050505050565b6131df80620007f36000396000f3fe6080604052600436106101405760003560e01c80638ada6b0f116100b6578063b88d4fde1161006f578063b88d4fde14610402578063c204642c1461041e578063c87b56dd1461043a578063d5abeb0114610477578063e985e9c5146104a2578063f2fde38b146104df57610140565b80638ada6b0f146103115780638da5cb5b1461033c57806395d89b4114610367578063a035b1fe14610392578063a0712d68146103bd578063a22cb465146103d957610140565b806323b872dd1161010857806323b872dd146102315780633ccfd60b1461024d57806342842e0e146102645780636352211e1461028057806370a08231146102bd578063715018a6146102fa57610140565b806301ffc9a71461014557806306fdde0314610182578063081812fc146101ad578063095ea7b3146101ea57806318160ddd14610206575b600080fd5b34801561015157600080fd5b5061016c60048036038101906101679190611f44565b610508565b6040516101799190611f8c565b60405180910390f35b34801561018e57600080fd5b5061019761059a565b6040516101a49190612037565b60405180910390f35b3480156101b957600080fd5b506101d460048036038101906101cf919061208f565b61062c565b6040516101e191906120fd565b60405180910390f35b61020460048036038101906101ff9190612144565b6106ab565b005b34801561021257600080fd5b5061021b6107ef565b6040516102289190612193565b60405180910390f35b61024b600480360381019061024691906121ae565b610806565b005b34801561025957600080fd5b50610262610b28565b005b61027e600480360381019061027991906121ae565b610b70565b005b34801561028c57600080fd5b506102a760048036038101906102a2919061208f565b610b90565b6040516102b491906120fd565b60405180910390f35b3480156102c957600080fd5b506102e460048036038101906102df9190612201565b610ba2565b6040516102f19190612193565b60405180910390f35b34801561030657600080fd5b5061030f610c5a565b005b34801561031d57600080fd5b50610326610c6e565b604051610333919061228d565b60405180910390f35b34801561034857600080fd5b50610351610c94565b60405161035e91906120fd565b60405180910390f35b34801561037357600080fd5b5061037c610cbe565b6040516103899190612037565b60405180910390f35b34801561039e57600080fd5b506103a7610d50565b6040516103b49190612193565b60405180910390f35b6103d760048036038101906103d2919061208f565b610d56565b005b3480156103e557600080fd5b5061040060048036038101906103fb91906122d4565b610e0a565b005b61041c60048036038101906104179190612449565b610f15565b005b61043860048036038101906104339190612594565b610f88565b005b34801561044657600080fd5b50610461600480360381019061045c919061208f565b61103b565b60405161046e9190612037565b60405180910390f35b34801561048357600080fd5b5061048c61142a565b6040516104999190612193565b60405180910390f35b3480156104ae57600080fd5b506104c960048036038101906104c491906125f0565b611430565b6040516104d69190611f8c565b60405180910390f35b3480156104eb57600080fd5b5061050660048036038101906105019190612201565b6114c4565b005b60006301ffc9a760e01b827bffffffffffffffffffffffffffffffffffffffffffffffffffffffff1916148061056357506380ac58cd60e01b827bffffffffffffffffffffffffffffffffffffffffffffffffffffffff1916145b806105935750635b5e139f60e01b827bffffffffffffffffffffffffffffffffffffffffffffffffffffffff1916145b9050919050565b6060600280546105a99061265f565b80601f01602080910402602001604051908101604052809291908181526020018280546105d59061265f565b80156106225780601f106105f757610100808354040283529160200191610622565b820191906000526020600020905b81548152906001019060200180831161060557829003601f168201915b5050505050905090565b600061063782611547565b61066d576040517fcf4700e400000000000000000000000000000000000000000000000000000000815260040160405180910390fd5b6006600083815260200190815260200160002060000160009054906101000a900473ffffffffffffffffffffffffffffffffffffffff169050919050565b60006106b682610b90565b90508073ffffffffffffffffffffffffffffffffffffffff166106d76115a6565b73ffffffffffffffffffffffffffffffffffffffff161461073a57610703816106fe6115a6565b611430565b610739576040517fcfb3b94200000000000000000000000000000000000000000000000000000000815260040160405180910390fd5b5b826006600084815260200190815260200160002060000160006101000a81548173ffffffffffffffffffffffffffffffffffffffff021916908373ffffffffffffffffffffffffffffffffffffffff160217905550818373ffffffffffffffffffffffffffffffffffffffff168273ffffffffffffffffffffffffffffffffffffffff167f8c5be1e5ebec7d5bd14f71427d1e84f3dd0314c0f7b2291e5b200ac8c7c3b92560405160405180910390a4505050565b60006107f96115ae565b6001546000540303905090565b6000610811826115b3565b90508373ffffffffffffffffffffffffffffffffffffffff168173ffffffffffffffffffffffffffffffffffffffff1614610878576040517fa114810000000000000000000000000000000000000000000000000000000000815260040160405180910390fd5b6000806108848461167f565b9150915061089a81876108956115a6565b6116a6565b6108e6576108af866108aa6115a6565b611430565b6108e5576040517f59c896be00000000000000000000000000000000000000000000000000000000815260040160405180910390fd5b5b600073ffffffffffffffffffffffffffffffffffffffff168573ffffffffffffffffffffffffffffffffffffffff160361094c576040517fea553b3400000000000000000000000000000000000000000000000000000000815260040160405180910390fd5b61095986868660016116ea565b801561096457600082555b600560008773ffffffffffffffffffffffffffffffffffffffff1673ffffffffffffffffffffffffffffffffffffffff168152602001908152602001600020600081546001900391905081905550600560008673ffffffffffffffffffffffffffffffffffffffff1673ffffffffffffffffffffffffffffffffffffffff1681526020019081526020016000206000815460010191905081905550610a3285610a0e8888876116f0565b7c020000000000000000000000000000000000000000000000000000000017611718565b600460008681526020019081526020016000208190555060007c0200000000000000000000000000000000000000000000000000000000841603610ab85760006001850190506000600460008381526020019081526020016000205403610ab6576000548114610ab5578360046000838152602001908152602001600020819055505b5b505b838573ffffffffffffffffffffffffffffffffffffffff168773ffffffffffffffffffffffffffffffffffffffff167fddf252ad1be2c89b69c2b068fc378daa952ba7f163c4a11628f55a4df523b3ef60405160405180910390a4610b208686866001611743565b505050505050565b610b30611749565b3373ffffffffffffffffffffffffffffffffffffffff166108fc479081150290604051600060405180830381858888f19350505050610b6e57600080fd5b565b610b8b83838360405180602001604052806000815250610f15565b505050565b6000610b9b826115b3565b9050919050565b60008073ffffffffffffffffffffffffffffffffffffffff168273ffffffffffffffffffffffffffffffffffffffff1603610c09576040517f8f4eb60400000000000000000000000000000000000000000000000000000000815260040160405180910390fd5b67ffffffffffffffff600560008473ffffffffffffffffffffffffffffffffffffffff1673ffffffffffffffffffffffffffffffffffffffff16815260200190815260200160002054169050919050565b610c62611749565b610c6c60006117c7565b565b600b60009054906101000a900473ffffffffffffffffffffffffffffffffffffffff1681565b6000600860009054906101000a900473ffffffffffffffffffffffffffffffffffffffff16905090565b606060038054610ccd9061265f565b80601f0160208091040260200160405190810160405280929190818152602001828054610cf99061265f565b8015610d465780601f10610d1b57610100808354040283529160200191610d46565b820191906000526020600020905b815481529060010190602001808311610d2957829003601f168201915b5050505050905090565b60095481565b80600954610d6491906126bf565b341015610da6576040517f08c379a0000000000000000000000000000000000000000000000000000000008152600401610d9d90612765565b60405180910390fd5b600a5481610db26107ef565b610dbc9190612785565b1115610dfd576040517f08c379a0000000000000000000000000000000000000000000000000000000008152600401610df490612805565b60405180910390fd5b610e07338261188d565b50565b8060076000610e176115a6565b73ffffffffffffffffffffffffffffffffffffffff1673ffffffffffffffffffffffffffffffffffffffff16815260200190815260200160002060008473ffffffffffffffffffffffffffffffffffffffff1673ffffffffffffffffffffffffffffffffffffffff16815260200190815260200160002060006101000a81548160ff0219169083151502179055508173ffffffffffffffffffffffffffffffffffffffff16610ec46115a6565b73ffffffffffffffffffffffffffffffffffffffff167f17307eab39ab6107e8899845ad3d59bd9653f200f220920489ca2b5937696c3183604051610f099190611f8c565b60405180910390a35050565b610f20848484610806565b60008373ffffffffffffffffffffffffffffffffffffffff163b14610f8257610f4b84848484611a48565b610f81576040517fd1a57ed600000000000000000000000000000000000000000000000000000000815260040160405180910390fd5b5b50505050565b610f90611749565b600a54825182610fa091906126bf565b610fa86107ef565b610fb29190612785565b1115610ff3576040517f08c379a0000000000000000000000000000000000000000000000000000000008152600401610fea90612805565b60405180910390fd5b60005b82518110156110365761102383828151811061101557611014612825565b5b60200260200101518361188d565b808061102e90612854565b915050610ff6565b505050565b606061104682611547565b61107c576040517fa14c4b5000000000000000000000000000000000000000000000000000000000815260040160405180910390fd5b600061108783611b98565b6040516020016110979190612924565b604051602081830303815290604052905060006040518060600160405280603f815260200161312b603f913990506000600b60009054906101000a900473ffffffffffffffffffffffffffffffffffffffff1673ffffffffffffffffffffffffffffffffffffffff1663be985ac9866040518263ffffffff1660e01b81526004016111229190612193565b600060405180830381865afa15801561113f573d6000803e3d6000fd5b505050506040513d6000823e3d601f19601f8201168201806040525081019061116891906129e7565b905060008383611212600b60009054906101000a900473ffffffffffffffffffffffffffffffffffffffff1673ffffffffffffffffffffffffffffffffffffffff1663dd01884f8a6040518263ffffffff1660e01b81526004016111cc9190612193565b602060405180830381865afa1580156111e9573d6000803e3d6000fd5b505050506040513d601f19601f8201168201806040525081019061120d9190612a45565b611b98565b6112b6600b60009054906101000a900473ffffffffffffffffffffffffffffffffffffffff1673ffffffffffffffffffffffffffffffffffffffff1663398820ff8b6040518263ffffffff1660e01b81526004016112709190612193565b602060405180830381865afa15801561128d573d6000803e3d6000fd5b505050506040513d601f19601f820116820180604052508101906112b19190612a45565b611b98565b600b60009054906101000a900473ffffffffffffffffffffffffffffffffffffffff1673ffffffffffffffffffffffffffffffffffffffff16634716826c8b6040518263ffffffff1660e01b81526004016113119190612193565b602060405180830381865afa15801561132e573d6000803e3d6000fd5b505050506040513d601f19601f820116820180604052508101906113529190612a87565b611391576040518060400160405280600681526020017f4e6f726d616c00000000000000000000000000000000000000000000000000008152506113c8565b6040518060400160405280600481526020017f426c7565000000000000000000000000000000000000000000000000000000008152505b6113d187611d20565b6040516020016113e696959493929190612d60565b604051602081830303815290604052905061140081611d20565b6040516020016114109190612e51565b604051602081830303815290604052945050505050919050565b600a5481565b6000600760008473ffffffffffffffffffffffffffffffffffffffff1673ffffffffffffffffffffffffffffffffffffffff16815260200190815260200160002060008373ffffffffffffffffffffffffffffffffffffffff1673ffffffffffffffffffffffffffffffffffffffff16815260200190815260200160002060009054906101000a900460ff16905092915050565b6114cc611749565b600073ffffffffffffffffffffffffffffffffffffffff168173ffffffffffffffffffffffffffffffffffffffff160361153b576040517f08c379a000000000000000000000000000000000000000000000000000000000815260040161153290612ee5565b60405180910390fd5b611544816117c7565b50565b6000816115526115ae565b11158015611561575060005482105b801561159f575060007c0100000000000000000000000000000000000000000000000000000000600460008581526020019081526020016000205416145b9050919050565b600033905090565b600090565b600080829050806115c26115ae565b11611648576000548110156116475760006004600083815260200190815260200160002054905060007c0100000000000000000000000000000000000000000000000000000000821603611645575b6000810361163b576004600083600190039350838152602001908152602001600020549050611611565b809250505061167a565b505b5b6040517fdf2d9b4200000000000000000000000000000000000000000000000000000000815260040160405180910390fd5b919050565b60008060006006600085815260200190815260200160002090508092508254915050915091565b600073ffffffffffffffffffffffffffffffffffffffff8316925073ffffffffffffffffffffffffffffffffffffffff821691508382148383141790509392505050565b50505050565b60008060e883901c905060e8611707868684611eb7565b62ffffff16901b9150509392505050565b600073ffffffffffffffffffffffffffffffffffffffff83169250814260a01b178317905092915050565b50505050565b611751611ec0565b73ffffffffffffffffffffffffffffffffffffffff1661176f610c94565b73ffffffffffffffffffffffffffffffffffffffff16146117c5576040517f08c379a00000000000000000000000000000000000000000000000000000000081526004016117bc90612f51565b60405180910390fd5b565b6000600860009054906101000a900473ffffffffffffffffffffffffffffffffffffffff16905081600860006101000a81548173ffffffffffffffffffffffffffffffffffffffff021916908373ffffffffffffffffffffffffffffffffffffffff1602179055508173ffffffffffffffffffffffffffffffffffffffff168173ffffffffffffffffffffffffffffffffffffffff167f8be0079c531659141344cd1fd0a4f28419497f9722a3daafe3b4186f6b6457e060405160405180910390a35050565b600080549050600082036118cd576040517fb562e8dd00000000000000000000000000000000000000000000000000000000815260040160405180910390fd5b6118da60008483856116ea565b600160406001901b178202600560008573ffffffffffffffffffffffffffffffffffffffff1673ffffffffffffffffffffffffffffffffffffffff168152602001908152602001600020600082825401925050819055506119518361194260008660006116f0565b61194b85611ec8565b17611718565b6004600083815260200190815260200160002081905550600080838301905073ffffffffffffffffffffffffffffffffffffffff85169150828260007fddf252ad1be2c89b69c2b068fc378daa952ba7f163c4a11628f55a4df523b3ef600080a4600183015b8181146119f257808360007fddf252ad1be2c89b69c2b068fc378daa952ba7f163c4a11628f55a4df523b3ef600080a46001810190506119b7565b5060008203611a2d576040517f2e07630000000000000000000000000000000000000000000000000000000000815260040160405180910390fd5b806000819055505050611a436000848385611743565b505050565b60008373ffffffffffffffffffffffffffffffffffffffff1663150b7a02611a6e6115a6565b8786866040518563ffffffff1660e01b8152600401611a909493929190612fc6565b6020604051808303816000875af1925050508015611acc57506040513d601f19601f82011682018060405250810190611ac99190613027565b60015b611b45573d8060008114611afc576040519150601f19603f3d011682016040523d82523d6000602084013e611b01565b606091505b506000815103611b3d576040517fd1a57ed600000000000000000000000000000000000000000000000000000000815260040160405180910390fd5b805181602001fd5b63150b7a0260e01b7bffffffffffffffffffffffffffffffffffffffffffffffffffffffff1916817bffffffffffffffffffffffffffffffffffffffffffffffffffffffff191614915050949350505050565b606060008203611bdf576040518060400160405280600181526020017f30000000000000000000000000000000000000000000000000000000000000008152509050611d1b565b600082905060005b60008214611c11578080611bfa90612854565b915050600a82611c0a9190613083565b9150611be7565b60008167ffffffffffffffff811115611c2d57611c2c61231e565b5b6040519080825280601f01601f191660200182016040528015611c5f5781602001600182028036833780820191505090505b50905060008290505b60008614611d1357600181611c7d91906130b4565b90506000600a8088611c8f9190613083565b611c9991906126bf565b87611ca491906130b4565b6030611cb091906130f5565b905060008160f81b905080848481518110611cce57611ccd612825565b5b60200101907effffffffffffffffffffffffffffffffffffffffffffffffffffffffffffff1916908160001a905350600a88611d0a9190613083565b97505050611c68565b819450505050505b919050565b606060008251905060008103611d485760405180602001604052806000815250915050611eb2565b60006003600283611d599190612785565b611d639190613083565b6004611d6f91906126bf565b90506000602082611d809190612785565b67ffffffffffffffff811115611d9957611d9861231e565b5b6040519080825280601f01601f191660200182016040528015611dcb5781602001600182028036833780820191505090505b509050600060405180606001604052806040815260200161316a604091399050600181016020830160005b86811015611e6f5760038101905062ffffff818a015116603f8160121c168401518060081b905060ff603f83600c1c1686015116810190508060081b905060ff603f8360061c1686015116810190508060081b905060ff603f831686015116810190508060e01b90508084526004840193505050611df6565b506003860660018114611e895760028114611e9957611ea4565b613d3d60f01b6002830352611ea4565b603d60f81b60018303525b508484525050819450505050505b919050565b60009392505050565b600033905090565b60006001821460e11b9050919050565b6000604051905090565b600080fd5b600080fd5b60007fffffffff0000000000000000000000000000000000000000000000000000000082169050919050565b611f2181611eec565b8114611f2c57600080fd5b50565b600081359050611f3e81611f18565b92915050565b600060208284031215611f5a57611f59611ee2565b5b6000611f6884828501611f2f565b91505092915050565b60008115159050919050565b611f8681611f71565b82525050565b6000602082019050611fa16000830184611f7d565b92915050565b600081519050919050565b600082825260208201905092915050565b60005b83811015611fe1578082015181840152602081019050611fc6565b60008484015250505050565b6000601f19601f8301169050919050565b600061200982611fa7565b6120138185611fb2565b9350612023818560208601611fc3565b61202c81611fed565b840191505092915050565b600060208201905081810360008301526120518184611ffe565b905092915050565b6000819050919050565b61206c81612059565b811461207757600080fd5b50565b60008135905061208981612063565b92915050565b6000602082840312156120a5576120a4611ee2565b5b60006120b38482850161207a565b91505092915050565b600073ffffffffffffffffffffffffffffffffffffffff82169050919050565b60006120e7826120bc565b9050919050565b6120f7816120dc565b82525050565b600060208201905061211260008301846120ee565b92915050565b612121816120dc565b811461212c57600080fd5b50565b60008135905061213e81612118565b92915050565b6000806040838503121561215b5761215a611ee2565b5b60006121698582860161212f565b925050602061217a8582860161207a565b9150509250929050565b61218d81612059565b82525050565b60006020820190506121a86000830184612184565b92915050565b6000806000606084860312156121c7576121c6611ee2565b5b60006121d58682870161212f565b93505060206121e68682870161212f565b92505060406121f78682870161207a565b9150509250925092565b60006020828403121561221757612216611ee2565b5b60006122258482850161212f565b91505092915050565b6000819050919050565b600061225361224e612249846120bc565b61222e565b6120bc565b9050919050565b600061226582612238565b9050919050565b60006122778261225a565b9050919050565b6122878161226c565b82525050565b60006020820190506122a2600083018461227e565b92915050565b6122b181611f71565b81146122bc57600080fd5b50565b6000813590506122ce816122a8565b92915050565b600080604083850312156122eb576122ea611ee2565b5b60006122f98582860161212f565b925050602061230a858286016122bf565b9150509250929050565b600080fd5b600080fd5b7f4e487b7100000000000000000000000000000000000000000000000000000000600052604160045260246000fd5b61235682611fed565b810181811067ffffffffffffffff821117156123755761237461231e565b5b80604052505050565b6000612388611ed8565b9050612394828261234d565b919050565b600067ffffffffffffffff8211156123b4576123b361231e565b5b6123bd82611fed565b9050602081019050919050565b82818337600083830152505050565b60006123ec6123e784612399565b61237e565b90508281526020810184848401111561240857612407612319565b5b6124138482856123ca565b509392505050565b600082601f8301126124305761242f612314565b5b81356124408482602086016123d9565b91505092915050565b6000806000806080858703121561246357612462611ee2565b5b60006124718782880161212f565b94505060206124828782880161212f565b93505060406124938782880161207a565b925050606085013567ffffffffffffffff8111156124b4576124b3611ee7565b5b6124c08782880161241b565b91505092959194509250565b600067ffffffffffffffff8211156124e7576124e661231e565b5b602082029050602081019050919050565b600080fd5b600061251061250b846124cc565b61237e565b90508083825260208201905060208402830185811115612533576125326124f8565b5b835b8181101561255c5780612548888261212f565b845260208401935050602081019050612535565b5050509392505050565b600082601f83011261257b5761257a612314565b5b813561258b8482602086016124fd565b91505092915050565b600080604083850312156125ab576125aa611ee2565b5b600083013567ffffffffffffffff8111156125c9576125c8611ee7565b5b6125d585828601612566565b92505060206125e68582860161207a565b9150509250929050565b6000806040838503121561260757612606611ee2565b5b60006126158582860161212f565b92505060206126268582860161212f565b9150509250929050565b7f4e487b7100000000000000000000000000000000000000000000000000000000600052602260045260246000fd5b6000600282049050600182168061267757607f821691505b60208210810361268a57612689612630565b5b50919050565b7f4e487b7100000000000000000000000000000000000000000000000000000000600052601160045260246000fd5b60006126ca82612059565b91506126d583612059565b9250817fffffffffffffffffffffffffffffffffffffffffffffffffffffffffffffffff048311821515161561270e5761270d612690565b5b828202905092915050565b7f496e73756666696369656e742066656500000000000000000000000000000000600082015250565b600061274f601083611fb2565b915061275a82612719565b602082019050919050565b6000602082019050818103600083015261277e81612742565b9050919050565b600061279082612059565b915061279b83612059565b92508282019050808211156127b3576127b2612690565b5b92915050565b7f45786365656473206d617820737570706c790000000000000000000000000000600082015250565b60006127ef601283611fb2565b91506127fa826127b9565b602082019050919050565b6000602082019050818103600083015261281e816127e2565b9050919050565b7f4e487b7100000000000000000000000000000000000000000000000000000000600052603260045260246000fd5b600061285f82612059565b91507fffffffffffffffffffffffffffffffffffffffffffffffffffffffffffffffff820361289157612890612690565b5b600182019050919050565b600081905092915050565b7f536f6c61722053797374656d2023000000000000000000000000000000000000600082015250565b60006128dd600e8361289c565b91506128e8826128a7565b600e82019050919050565b60006128fe82611fa7565b612908818561289c565b9350612918818560208601611fc3565b80840191505092915050565b600061292f826128d0565b915061293b82846128f3565b915081905092915050565b600067ffffffffffffffff8211156129615761296061231e565b5b61296a82611fed565b9050602081019050919050565b600061298a61298584612946565b61237e565b9050828152602081018484840111156129a6576129a5612319565b5b6129b1848285611fc3565b509392505050565b600082601f8301126129ce576129cd612314565b5b81516129de848260208601612977565b91505092915050565b6000602082840312156129fd576129fc611ee2565b5b600082015167ffffffffffffffff811115612a1b57612a1a611ee7565b5b612a27848285016129b9565b91505092915050565b600081519050612a3f81612063565b92915050565b600060208284031215612a5b57612a5a611ee2565b5b6000612a6984828501612a30565b91505092915050565b600081519050612a81816122a8565b92915050565b600060208284031215612a9d57612a9c611ee2565b5b6000612aab84828501612a72565b91505092915050565b7f7b226e616d65223a220000000000000000000000000000000000000000000000600082015250565b6000612aea60098361289c565b9150612af582612ab4565b600982019050919050565b7f222c226465736372697074696f6e223a22000000000000000000000000000000600082015250565b6000612b3660118361289c565b9150612b4182612b00565b601182019050919050565b7f222c2261747472696275746573223a5b7b2274726169745f74797065223a225060008201527f6c616e657473222c2276616c7565223a22000000000000000000000000000000602082015250565b6000612ba860318361289c565b9150612bb382612b4c565b603182019050919050565b7f227d2c207b2274726169745f74797065223a2252696e67656420506c616e657460008201527f73222c202276616c7565223a2022000000000000000000000000000000000000602082015250565b6000612c1a602e8361289c565b9150612c2582612bbe565b602e82019050919050565b7f227d2c207b2274726169745f74797065223a22537461722054797065222c202260008201527f76616c7565223a20220000000000000000000000000000000000000000000000602082015250565b6000612c8c60298361289c565b9150612c9782612c30565b602982019050919050565b7f227d5d2c2022696d616765223a2022646174613a696d6167652f7376672b786d60008201527f6c3b6261736536342c0000000000000000000000000000000000000000000000602082015250565b6000612cfe60298361289c565b9150612d0982612ca2565b602982019050919050565b7f227d000000000000000000000000000000000000000000000000000000000000600082015250565b6000612d4a60028361289c565b9150612d5582612d14565b600282019050919050565b6000612d6b82612add565b9150612d7782896128f3565b9150612d8282612b29565b9150612d8e82886128f3565b9150612d9982612b9b565b9150612da582876128f3565b9150612db082612c0d565b9150612dbc82866128f3565b9150612dc782612c7f565b9150612dd382856128f3565b9150612dde82612cf1565b9150612dea82846128f3565b9150612df582612d3d565b9150819050979650505050505050565b7f646174613a6170706c69636174696f6e2f6a736f6e3b6261736536342c000000600082015250565b6000612e3b601d8361289c565b9150612e4682612e05565b601d82019050919050565b6000612e5c82612e2e565b9150612e6882846128f3565b915081905092915050565b7f4f776e61626c653a206e6577206f776e657220697320746865207a65726f206160008201527f6464726573730000000000000000000000000000000000000000000000000000602082015250565b6000612ecf602683611fb2565b9150612eda82612e73565b604082019050919050565b60006020820190508181036000830152612efe81612ec2565b9050919050565b7f4f776e61626c653a2063616c6c6572206973206e6f7420746865206f776e6572600082015250565b6000612f3b602083611fb2565b9150612f4682612f05565b602082019050919050565b60006020820190508181036000830152612f6a81612f2e565b9050919050565b600081519050919050565b600082825260208201905092915050565b6000612f9882612f71565b612fa28185612f7c565b9350612fb2818560208601611fc3565b612fbb81611fed565b840191505092915050565b6000608082019050612fdb60008301876120ee565b612fe860208301866120ee565b612ff56040830185612184565b81810360608301526130078184612f8d565b905095945050505050565b60008151905061302181611f18565b92915050565b60006020828403121561303d5761303c611ee2565b5b600061304b84828501613012565b91505092915050565b7f4e487b7100000000000000000000000000000000000000000000000000000000600052601260045260246000fd5b600061308e82612059565b915061309983612059565b9250826130a9576130a8613054565b5b828204905092915050565b60006130bf82612059565b91506130ca83612059565b92508282039050818111156130e2576130e1612690565b5b92915050565b600060ff82169050919050565b6000613100826130e8565b915061310b836130e8565b9250828201905060ff81111561312457613123612690565b5b9291505056fe46756c6c79206f6e2d636861696e2c2070726f6365647572616c6c792067656e6572617465642c20616e696d6174656420736f6c61722073797374656d732e4142434445464748494a4b4c4d4e4f505152535455565758595a6162636465666768696a6b6c6d6e6f707172737475767778797a303132333435363738392b2fa2646970667358221220fb92cbbfce2cb70fff6a07f6b7ef6ca48124aaae5968d7e0979ced3a2318bf5664736f6c63430008100033",
  "libraries": {
    "Utilities": "0x744B8BD1aB1aE8ED8f798eA0cdf9da84625197Ff",
    "Trigonometry": "0x24730cE0481D5E949932456881a72Df23FD5F7b7"
  },
  "devdoc": {
    "kind": "dev",
    "methods": {
      "airdrop(address[],uint256)": {
        "params": {
          "_quantity": "Quantity of solar systems to airdrop to each recipient.",
          "_recipients": "List of recipients to receive the airdrop."
        }
      },
      "approve(address,uint256)": {
        "details": "Gives permission to `to` to transfer `tokenId` token to another account. The approval is cleared when the token is transferred. Only a single account can be approved at a time, so approving the zero address clears previous approvals. Requirements: - The caller must own the token or be an approved operator. - `tokenId` must exist. Emits an {Approval} event."
      },
      "balanceOf(address)": {
        "details": "Returns the number of tokens in `owner`'s account."
      },
      "constructor": {
        "details": "Constructs a new instance of the contract.",
        "params": {
          "_maxSupply": "Maximum supply of solar systems.",
          "_name": "Name of the ERC721 token.",
          "_price": "Price of each solar system in wei.",
          "_symbol": "Symbol of the ERC721 token."
        }
      },
      "getApproved(uint256)": {
        "details": "Returns the account approved for `tokenId` token. Requirements: - `tokenId` must exist."
      },
      "isApprovedForAll(address,address)": {
        "details": "Returns if the `operator` is allowed to manage all of the assets of `owner`. See {setApprovalForAll}."
      },
      "mint(uint256)": {
        "params": {
          "_quantity": "Quantity of solar systems to mint."
        }
      },
      "name()": {
        "details": "Returns the token collection name."
      },
      "owner()": {
        "details": "Returns the address of the current owner."
      },
      "ownerOf(uint256)": {
        "details": "Returns the owner of the `tokenId` token. Requirements: - `tokenId` must exist."
      },
      "renounceOwnership()": {
        "details": "Leaves the contract without owner. It will not be possible to call `onlyOwner` functions anymore. Can only be called by the current owner. NOTE: Renouncing ownership will leave the contract without an owner, thereby removing any functionality that is only available to the owner."
      },
      "safeTransferFrom(address,address,uint256)": {
        "details": "Equivalent to `safeTransferFrom(from, to, tokenId, '')`."
      },
      "safeTransferFrom(address,address,uint256,bytes)": {
        "details": "Safely transfers `tokenId` token from `from` to `to`. Requirements: - `from` cannot be the zero address. - `to` cannot be the zero address. - `tokenId` token must exist and be owned by `from`. - If the caller is not `from`, it must be approved to move this token by either {approve} or {setApprovalForAll}. - If `to` refers to a smart contract, it must implement {IERC721Receiver-onERC721Received}, which is called upon a safe transfer. Emits a {Transfer} event."
      },
      "setApprovalForAll(address,bool)": {
        "details": "Approve or remove `operator` as an operator for the caller. Operators can call {transferFrom} or {safeTransferFrom} for any token owned by the caller. Requirements: - The `operator` cannot be the caller. Emits an {ApprovalForAll} event."
      },
      "supportsInterface(bytes4)": {
        "details": "Returns true if this contract implements the interface defined by `interfaceId`. See the corresponding [EIP section](https://eips.ethereum.org/EIPS/eip-165#how-interfaces-are-identified) to learn more about how these ids are created. This function call must use less than 30000 gas."
      },
      "symbol()": {
        "details": "Returns the token collection symbol."
      },
      "tokenURI(uint256)": {
        "params": {
          "tokenId": "ID of the token to get the URI for."
        },
        "returns": {
          "_0": "Token URI."
        }
      },
      "totalSupply()": {
        "details": "Returns the total number of tokens in existence. Burned tokens will reduce the count. To get the total number of tokens minted, please see {_totalMinted}."
      },
      "transferFrom(address,address,uint256)": {
        "details": "Transfers `tokenId` from `from` to `to`. Requirements: - `from` cannot be the zero address. - `to` cannot be the zero address. - `tokenId` token must be owned by `from`. - If the caller is not `from`, it must be approved to move this token by either {approve} or {setApprovalForAll}. Emits a {Transfer} event."
      },
      "transferOwnership(address)": {
        "details": "Transfers ownership of the contract to a new account (`newOwner`). Can only be called by the current owner."
      }
    },
    "version": 1
  },
  "userdoc": {
    "errors": {
      "ApprovalCallerNotOwnerNorApproved()": [
        {
          "notice": "The caller must own the token or be an approved operator."
        }
      ],
      "ApprovalQueryForNonexistentToken()": [
        {
          "notice": "The token does not exist."
        }
      ],
      "BalanceQueryForZeroAddress()": [
        {
          "notice": "Cannot query the balance for the zero address."
        }
      ],
      "MintERC2309QuantityExceedsLimit()": [
        {
          "notice": "The `quantity` minted with ERC2309 exceeds the safety limit."
        }
      ],
      "MintToZeroAddress()": [
        {
          "notice": "Cannot mint to the zero address."
        }
      ],
      "MintZeroQuantity()": [
        {
          "notice": "The quantity of tokens minted must be more than zero."
        }
      ],
      "OwnerQueryForNonexistentToken()": [
        {
          "notice": "The token does not exist."
        }
      ],
      "OwnershipNotInitializedForExtraData()": [
        {
          "notice": "The `extraData` cannot be set on an unintialized ownership slot."
        }
      ],
      "TransferCallerNotOwnerNorApproved()": [
        {
          "notice": "The caller must own the token or be an approved operator."
        }
      ],
      "TransferFromIncorrectOwner()": [
        {
          "notice": "The token must be owned by `from`."
        }
      ],
      "TransferToNonERC721ReceiverImplementer()": [
        {
          "notice": "Cannot safely transfer to a contract that does not implement the ERC721Receiver interface."
        }
      ],
      "TransferToZeroAddress()": [
        {
          "notice": "Cannot transfer to the zero address."
        }
      ],
      "URIQueryForNonexistentToken()": [
        {
          "notice": "The token does not exist."
        }
      ]
    },
    "kind": "user",
    "methods": {
      "airdrop(address[],uint256)": {
        "notice": "Airdrops solar systems to a list of recipients. Only callable by the contract owner."
      },
      "mint(uint256)": {
        "notice": "Mints new solar systems for the caller."
      },
      "tokenURI(uint256)": {
        "notice": "Returns the token URI for a given token ID."
      },
      "withdraw()": {
        "notice": "Withdraws the contract's balance. Only callable by the contract owner."
      }
    },
    "version": 1
  },
  "storageLayout": {
    "storage": [
      {
        "astId": 1747,
        "contract": "contracts/SolarSystem.sol:SolarSystems",
        "label": "_currentIndex",
        "offset": 0,
        "slot": "0",
        "type": "t_uint256"
      },
      {
        "astId": 1749,
        "contract": "contracts/SolarSystem.sol:SolarSystems",
        "label": "_burnCounter",
        "offset": 0,
        "slot": "1",
        "type": "t_uint256"
      },
      {
        "astId": 1751,
        "contract": "contracts/SolarSystem.sol:SolarSystems",
        "label": "_name",
        "offset": 0,
        "slot": "2",
        "type": "t_string_storage"
      },
      {
        "astId": 1753,
        "contract": "contracts/SolarSystem.sol:SolarSystems",
        "label": "_symbol",
        "offset": 0,
        "slot": "3",
        "type": "t_string_storage"
      },
      {
        "astId": 1757,
        "contract": "contracts/SolarSystem.sol:SolarSystems",
        "label": "_packedOwnerships",
        "offset": 0,
        "slot": "4",
        "type": "t_mapping(t_uint256,t_uint256)"
      },
      {
        "astId": 1761,
        "contract": "contracts/SolarSystem.sol:SolarSystems",
        "label": "_packedAddressData",
        "offset": 0,
        "slot": "5",
        "type": "t_mapping(t_address,t_uint256)"
      },
      {
        "astId": 1766,
        "contract": "contracts/SolarSystem.sol:SolarSystems",
        "label": "_tokenApprovals",
        "offset": 0,
        "slot": "6",
        "type": "t_mapping(t_uint256,t_struct(TokenApprovalRef)1679_storage)"
      },
      {
        "astId": 1772,
        "contract": "contracts/SolarSystem.sol:SolarSystems",
        "label": "_operatorApprovals",
        "offset": 0,
        "slot": "7",
        "type": "t_mapping(t_address,t_mapping(t_address,t_bool))"
      },
      {
        "astId": 7,
        "contract": "contracts/SolarSystem.sol:SolarSystems",
        "label": "_owner",
        "offset": 0,
        "slot": "8",
        "type": "t_address"
      },
      {
        "astId": 994,
        "contract": "contracts/SolarSystem.sol:SolarSystems",
        "label": "price",
        "offset": 0,
        "slot": "9",
        "type": "t_uint256"
      },
      {
        "astId": 996,
        "contract": "contracts/SolarSystem.sol:SolarSystems",
        "label": "maxSupply",
        "offset": 0,
        "slot": "10",
        "type": "t_uint256"
      },
      {
        "astId": 999,
        "contract": "contracts/SolarSystem.sol:SolarSystems",
        "label": "renderer",
        "offset": 0,
        "slot": "11",
        "type": "t_contract(Renderer)981"
      }
    ],
    "types": {
      "t_address": {
        "encoding": "inplace",
        "label": "address",
        "numberOfBytes": "20"
      },
      "t_bool": {
        "encoding": "inplace",
        "label": "bool",
        "numberOfBytes": "1"
      },
      "t_contract(Renderer)981": {
        "encoding": "inplace",
        "label": "contract Renderer",
        "numberOfBytes": "20"
      },
      "t_mapping(t_address,t_bool)": {
        "encoding": "mapping",
        "key": "t_address",
        "label": "mapping(address => bool)",
        "numberOfBytes": "32",
        "value": "t_bool"
      },
      "t_mapping(t_address,t_mapping(t_address,t_bool))": {
        "encoding": "mapping",
        "key": "t_address",
        "label": "mapping(address => mapping(address => bool))",
        "numberOfBytes": "32",
        "value": "t_mapping(t_address,t_bool)"
      },
      "t_mapping(t_address,t_uint256)": {
        "encoding": "mapping",
        "key": "t_address",
        "label": "mapping(address => uint256)",
        "numberOfBytes": "32",
        "value": "t_uint256"
      },
      "t_mapping(t_uint256,t_struct(TokenApprovalRef)1679_storage)": {
        "encoding": "mapping",
        "key": "t_uint256",
        "label": "mapping(uint256 => struct ERC721A.TokenApprovalRef)",
        "numberOfBytes": "32",
        "value": "t_struct(TokenApprovalRef)1679_storage"
      },
      "t_mapping(t_uint256,t_uint256)": {
        "encoding": "mapping",
        "key": "t_uint256",
        "label": "mapping(uint256 => uint256)",
        "numberOfBytes": "32",
        "value": "t_uint256"
      },
      "t_string_storage": {
        "encoding": "bytes",
        "label": "string",
        "numberOfBytes": "32"
      },
      "t_struct(TokenApprovalRef)1679_storage": {
        "encoding": "inplace",
        "label": "struct ERC721A.TokenApprovalRef",
        "members": [
          {
            "astId": 1678,
            "contract": "contracts/SolarSystem.sol:SolarSystems",
            "label": "value",
            "offset": 0,
            "slot": "0",
            "type": "t_address"
          }
        ],
        "numberOfBytes": "32"
      },
      "t_uint256": {
        "encoding": "inplace",
        "label": "uint256",
        "numberOfBytes": "32"
      }
    }
  }
}